:100000008EC00000A8C00000A6C00000A4C0000070
:10001000A2C00000A0C000009EC000009CC0000064
:100020009AC0000098C0000096C000005AC70000A7
:1000300092C0000090C000008EC000008CC0000084
:100040008AC0000088C0000086C0000084C0000094
:1000500082C0000080C000007EC000009FC1000080
:100060007AC0000078C0000076C0000074C00000B4
:1000700072C0000026034A006F007900730074000C
:10008000690063006B000000180346007200610005
:100090006E00630069007300200050006100700072
:1000A00069006E006500610075000000040309042A
:1000B00009022200010100C032090400000103000E
:1000C0000000092111010001223A000705810308FF
:1000D00000051201100100000008EB03432001009D
:1000E0000102000105010904A1010901A100093073
:1000F000093109321618FC26E80336FFFF460100D5
:10010000950375108102C005091901290215002502
:1001100001750195028102750695018101C01124C6
:100120001FBECFEFD2E0DEBFCDBF11E0A0E0B1E057
:10013000E8E8F3E102C005900D92A031B107D9F7CC
:1001400021E0A0E1B1E001C01D92A23BB207E1F7BE
:1001500079D00C94C20954CF292F3327233031058D
:10016000C9F044F42130310509F439C02230310599
:1001700039F40BC02132310541F12232310551F100
:1001800020E030E080E090E033C022E230E080EB1D
:1001900090E02EC099278130910559F08230910569
:1001A00071F0892B09F5ECEAF0E0249130E0CF0101
:1001B0001FC0E8E8F0E0249130E0CF0119C0E4E787
:1001C000F0E0249130E0CF0113C029E030E082EC70
:1001D00090E00EC02AE330E084EE90E009C022E116
:1001E00030E082ED90E004C020E030E080E090E07C
:1001F000FA0191838083822F932F0895CF93DF9309
:1002000084B7877F84BF28E10FB6F89420936000FD
:10021000109260000FBE8FEC90E09093CD00809321
:10022000CC0086E08093CA0082E08093C800C9ECCD
:10023000D0E02883539A5A9A45D688E98883DF917B
:10024000CF910895DBDF2FB7F89480E291E090938F
:10025000A1018093A0019093A3018093A2012FBFDD
:10026000789480E091E045D20E948A098091100143
:1002700090911101892BA9F38091100190911101A6
:10028000019790931101809310018091100190913A
:100290001101E7CF0895089580E091E014D2E2EED5
:1002A000F0E0808184608083089580E091E0B6C0B2
:1002B00080910E0190910F01009729F00197909382
:1002C0000F0180930E010895CF92DF92FF920F935A
:1002D0001F93CF93DF939FB7F8948091A4019FBFA2
:1002E000883008F444C0C2E1D1E049E151E0A2EA1B
:1002F000B1E00F2EF0E2CF2EF1E0DF2EF02D84EAF8
:1003000091E0ED91FC911197F1901196FC93EE9391
:10031000E05AF14019F41196DC92CE926FB7F8943E
:10032000FC017081715070836FBFF992C417D507BB
:1003300041F7E2EAF1E08081918101969183808327
:10034000805A914031F480E291E09093A301809330
:10035000A2018FB7F894E4EAF1E090819150908384
:100360008FBF80ED97E0909311018093100187E09B
:10037000E2E1F1E0D90101900D928A95E1F787E081
:1003800090E0F8019183808380E0DF91CF911F910D
:100390000F91FF90DF90CF90089508951F920F92D4
:1003A0000FB60F9211242F938F939F93AF93BF9308
:1003B000EF93FF939091CE008091A901843011F5C5
:1003C0002FB7F8948091A4012FBF8038D9F0E0EACC
:1003D000F1E0A081B1819C9380819181019691830C
:1003E00080838E179F0731F480E291E09093A10102
:1003F0008093A0018FB7F894E4EAF1E090819F5FC9
:1004000090838FBFFF91EF91BF91AF919F918F919B
:100410002F910F900FBE0F901F9018953F924F9203
:100420005F926F927F928F929F92AF92BF92CF9284
:10043000DF92EF92FF920F931F93CF93DF9300D041
:100440001F92CDB7DEB76C01EDB6FEB68091E80025
:1004500083FF1FC1F601808190E02091AE013091B1
:10046000AF012817390709F014C18091AB0183301F
:1004700009F4ACC030F4813071F0823009F009C168
:10048000EDC08A3009F4CEC08B3009F4B7C0893092
:1004900009F0FFC059C08091AA01813A09F0F9C062
:1004A0008DB69EB61A821982ECEAF1E08081118144
:1004B0008B83F60140858DB79EB7841B91090FB6DB
:1004C000F8949EBF0FBE8DBFADB6BEB6E1E0F0E0C2
:1004D000AE0EBF1E6A2C7B2C50E060E070E08A2DCF
:1004E0009B2D49D7412F41508E010F5F1F4F2A2D61
:1004F0003B2DBE016D5F7F4FC601E6DEF601268112
:1005000037812115310539F0408550E06A2D7B2D6A
:10051000822F932F27D71092E90008EE10E0F80100
:100520008081877F808369817A81862D972D12D281
:10053000F80180818B778083882D992D0FB6F894F0
:100540009EBF0FBE8DBFA5C08091AA01813209F068
:10055000A0C05DB66EB6A090B001B090B101ECEA5B
:10056000F1E0708041808DB79EB78A199B090FB664
:10057000F8949EBF0FBE8DBF8DB69EB6E1E0F0E051
:100580008E0E9F1E08EE10E0F8018081877F808329
:10059000B501C40153D2F80180818E77808321E0B8
:1005A000711001C020E030E08501021B130B280D03
:1005B000391D442D4150672DC601EFDE852D962D46
:1005C0000FB6F8949EBF0FBE8DBF63C08091AA0185
:1005D000813A09F05EC0E8EEF0E08081877F808399
:1005E000808180FFFDCFF60181858093F100E8EEE8
:1005F000F0E080818E778083CCD34BC08091AA01BC
:10060000813209F046C0E8EEF0E08081877F808388
:10061000C0D39091AC0181E0911101C080E0F6015E
:10062000818737C08091AA01813299F5E8EEF0E028
:100630008081877F8083ADD38091AC019091AD01A3
:1006400088270024880F991F001C880F991F001C01
:10065000892F902DF601958784871BC08091AA0170
:10066000813AB9F4E8EEF0E08081877F8083808171
:1006700080FFFDCFF60184859585969587959695A3
:1006800087958093F100E8EEF0E080818E7780839B
:1006900080D30FB6F894FEBE0FBEEDBE0F900F9044
:1006A0000F90DF91CF911F910F91FF90EF90DF900E
:1006B000CF90BF90AF909F908F907F906F905F9002
:1006C0004F903F9008959C01275F3F4FE22FF32FFB
:1006D00027E0DF011D922A95E9F721E0FC0121873F
:1006E00024EF31E03587248723E0248361E00196FD
:1006F000E9C24F925F926F927F928F929F92AF92D8
:10070000BF92CF92DF92EF92FF920F931F93CF93FE
:10071000DF9300D01F92CDB7DEB77C01CDB6DEB639
:100720008091A901843009F09AC08091E4009091F1
:10073000E500F701228533852817390709F48FC0B2
:1007400081818F708093E9008091E80085FF87C0E8
:100750006DB67EB640858DB79EB7841B91090FB6E6
:10076000F8949EBF0FBE8DBFADB6BEB6E1E0F0E01F
:10077000AE0EBF1E1B821A8219828A2C9B2C50E05F
:1007800060E070E08A2D9B2DF6D58E010F5F1F4F24
:100790002A2D3B2D40E0BE016D5F7F4FC70194DDE8
:1007A000482EF70184859585892B49F001E010E0FA
:1007B00086859785892B29F000E010E002C000E0D3
:1007C00010E0F701A680B780A114B104B1F049810F
:1007D0005A81B501882D992DB8D5282F392F552448
:1007E0005394232B09F4512CF701408550E0682DD8
:1007F000792D8A2D9B2DB6D501C0512C89819A81E6
:10080000892BF9F0411004C0511002C000FF19C03B
:10081000F701848595859787868781818F7080937E
:10082000E9008B8181118093F10069817A8140E038
:1008300050E0882D992D2CD0E8EEF0E080818E7765
:1008400080838091E4009091E500F701938782878F
:10085000862D972D0FB6F8949EBF0FBE8DBF0FB695
:10086000F894DEBE0FBECDBE0F900F900F90DF91BB
:10087000CF911F910F91FF90EF90DF90CF90BF909D
:10088000AF909F908F907F906F905F904F90089562
:100890007F928F929F92AF92BF92CF92DF92EF9210
:1008A000FF920F931F93CF93DF937C01EB015A01CB
:1008B00095D2782E81113FC0A114B10439F0F50111
:1008C00020813181C21BD30BE20EF31E209799F1D8
:1008D00000E010E00F2EF8EE8F2E912CF02D0F2E51
:1008E000F1EFCF2ED12CF02DF401908195FD17C0A2
:1008F00080818E7780830ED5A114B10461F0F5015B
:1009000080819181080F191F118300830F2EF5E05C
:100910007F2EF02D10C062D2882349F00BC0F70162
:1009200081917F01F601808321970F5F1F4F2097F0
:10093000D9F601C0782E872DDF91CF911F910F91AD
:10094000FF90EF90DF90CF90BF90AF909F908F90EF
:100950007F9008950F931F93CF93DF932091B00161
:100960003091B1012617370758F06115710539F438
:10097000E8EEF0E020812E7720839B0101C09B01EF
:10098000E0E0A8EEB0E062EF70E011E000E0C1EF5F
:10099000D0E032C04091A901442309F441C0453060
:1009A00009F440C04C9143FD3FC04C9142FD31C021
:1009B0004C9140FF21C0FB01408150E021153105E1
:1009C00099F04830510580F4E82FF92F8191888300
:1009D0008E2F9F2F215031094F5F5F4F2115310519
:1009E00019F04830510591F7E12F4830510509F0D1
:1009F000E02F4C914E774C932115310559F6E111BA
:100A0000C9CF07C08091A901882381F0853019F4EE
:100A10000FC0E8EEF0E0808182FFF4CF80E009C0F3
:100A200082E007C083E005C081E003C082E001C02E
:100A300083E0DF91CF911F910F9108950F931F9342
:100A4000CF93DF936115710529F4E8EEF0E0208182
:100A50002B772083A8EEB0E002EF10E021EF30E02A
:100A60001CC04091A9014423B1F14530B1F14C9132
:100A700043FD35C04C9142FFF4CF3DC0E901888170
:100A800081938E2F9F2F6150710921F0E8014881D9
:100A90004111F4CF4C914B774C9361157105A1F046
:100AA0004091A9014423E9F04530E9F04C9143FD20
:100AB0001CC04C9142FFD5CF1EC08091A901882354
:100AC000B1F0853019F415C0E8EEF0E0808180FFC8
:100AD000F4CF80E017C082E015C083E013C081E04E
:100AE00011C082E00FC083E00DC081E00BC082E046
:100AF00009C083E007C0F8014081442359F2E82F80
:100B0000F92FBCCFDF91CF911F910F910895EF92F4
:100B1000FF921F93CF93DF932091B0013091B101E9
:100B20002617370758F06115710539F4E8EEF0E043
:100B300020812E7720839B0101C09B01E82FF92F94
:100B400060E0A8EEB0E042EF50E071E010E00F2E60
:100B5000F1EFEF2EF12CF02D2EC08091A90188230A
:100B600009F43DC0853009F43CC08C9183FD3BC045
:100B70008C9182FD2DC08C9180FF1DC0EA0188817F
:100B800090E02115310581F08830910568F4649179
:100B9000E70168833196215031090196211531050D
:100BA00019F08830910599F7672F089709F0612FA0
:100BB0008C918E778C932115310579F66111CDCF0B
:100BC00007C08091A901882381F0853019F40FC0F6
:100BD000E8EEF0E0808182FFF4CF80E009C082E09F
:100BE00007C083E005C081E003C082E001C083E06C
:100BF000DF91CF911F91FF90EF9008958F929F9278
:100C0000BF92CF92DF92EF92FF920F931F93CF93F9
:100C1000DF93853070F126C0592F5F70E80158834B
:100C2000891731F0E901D8805081E401788103C04F
:100C30005B2DD62E7C2D51FF12C04C914E7F4C93D4
:100C400040814D7F40834C9141604C93E901D882B3
:100C50005083E4017883E7015881552344F49F5F72
:100C60009530D1F68F708093E90081E01FC080E05D
:100C70001DC0982F9F709093E900982F542FD62E67
:100C800070E0ABEEB0E0EDEEF0E02CEE30E00F2ED9
:100C9000F0EF8F2E912CF02D0F2EFEEEEF2EF12C7B
:100CA000F02D09EE10E0B42EC12CC5CFDF91CF910D
:100CB0001F910F91FF90EF90DF90CF90BF909F908A
:100CC0008F9008959F92AF92BF92CF92DF92EF9252
:100CD000FF920F931F93CF93DF93C62E662309F4E1
:100CE00047C0EC018C010C5F1F4FD12CB12C6894D4
:100CF000EE24E3F8F12C6894992491F80F2EF6E095
:100D0000AF2EF02D5881552359F1F8019081E981DA
:100D1000FA81D80111976C91852F8F70853050F52D
:100D2000923010F04A2D01C0492DE930F10548F00C
:100D300097019B2D9F5F220F331F2E173F07D0F384
:100D400001C09B2D9295907F492B6295660F660F8F
:100D5000607C551F5527551F652B50DF882361F098
:100D6000D39425960B5F1F4FDC10CCCF81E005C0DC
:100D700081E003C080E001C080E0DF91CF911F914E
:100D80000F91FF90EF90DF90CF90BF90AF909F902A
:100D900008958091AA018823B4F405C08091A90127
:100DA000811103C00895E8EEF0E0808182FFF6CF64
:100DB000E8EEF0E080818B77808308958091A9012F
:100DC000811103C00895E8EEF0E0808180FFF6CF46
:100DD000E8EEF0E080818E77808308950F931F9373
:100DE000CF93DF932091E4003091E50065E6ACEE0F
:100DF000B0E0E8EEF0E00BEE10E044EE50E08C9155
:100E000080FD20C023C08091A901882389F085300E
:100E100089F0E801888185FD0FC0EA018881998108
:100E20002817390761F361509C0149F784E012C02B
:100E300082E010C083E00EC081E00CC080E00AC0F8
:100E400080E008C0808180FFDECFF8CF808182FF04
:100E5000DACFF6CFDF91CF911F910F9108953BD05C
:100E60003DD0E8EDF0E080818F77808380818068DD
:100E7000808380818F7D808384E089BD86E089BD09
:100E800009B400FEFDCF1092A9011092A5011092A5
:100E9000A7011092A60142E060E080E0AFDEE1EE43
:100EA000F0E080818E7F8083E2EEF0E080818160DF
:100EB0008083808188608083E0EEF0E080818E7F97
:100EC00080830895E3E6F0E080818E7F808381E077
:100ED0008093A801C4CF1092E20008951092E1001F
:100EE00008951F920F920FB60F9211242F933F93E4
:100EF0004F935F936F937F938F939F93AF93BF9322
:100F0000EF93FF938091E10082FF0AC08091E2009D
:100F100082FF06C0E1EEF0E080818B7F8083C8D93C
:100F20008091E10080FF15C08091E20080FF11C038
:100F3000E2EEF0E080818E7F80838081806180831B
:100F4000E8EDF0E080818062808319BC1092A901F5
:100F5000A2D98091E10084FF2FC08091E20084FF3C
:100F60002BC084E089BD86E089BD09B400FEFDCFB9
:100F7000E8EDF0E080818F7D8083E1EEF0E080811C
:100F80008F7E8083E2EEF0E080818F7E808380819F
:100F9000816080838091A501882321F084E0809383
:100FA000A90109C08091E300882314F483E001C003
:100FB00081E08093A9016ED98091E10083FF1EC07A
:100FC0008091E20083FF1AC0E1EEF0E08081877F2C
:100FD000808382E08093A9011092A50180818E7F99
:100FE0008083E2EEF0E080818E7F8083808180616B
:100FF000808342E060E080E001DE8BD1FF91EF91E1
:10100000BF91AF919F918F917F916F915F914F9120
:101010003F912F910F900FBE0F901F9018950F9337
:101020001F93CF93DF93CDB7DEB7AC970FB6F8948D
:10103000DEBF0FBECDBFEAEAF1E0A1EFB0E08C91D8
:10104000819321E0E23BF207D1F72FD98091E800AC
:1010500083FF3AC19091AA018091AB01853009F4D8
:1010600081C038F48130D1F170F0833009F02CC1A7
:1010700035C0883009F4F5C0893009F402C18630E2
:1010800009F022C196C0903821F0923809F01CC1B5
:1010900008C08091A6019091A701992389F08260F0
:1010A0000FC08091AE019091AF018F709927E9EE4A
:1010B000F0E080838091EB0085FB882780F9108227
:1010C000E8EEF0E09081977F9083A1EFB0E08C9301
:1010D0001C9280818E7780835CDEF6C0992309F4B0
:1010E00002C1923009F0F0C003C191E0833009F0F1
:1010F00090E09093A7012DC08091AE019091AF0137
:101100008F709927882309F4DFC08093E90020912C
:10111000EB0020FF1EC02091AB01233031F4EBEE39
:10112000F0E080818062808314C0EBEEF0E090817B
:101130009061908321E030E0A90102C0440F551F67
:101140008A95E2F7AAEEB0E04C931C928081886009
:1011500080831092E900E8EEF0E08081877F808351
:1011600018DEB2C09111B0C08091AC019091AD0178
:101170008F779927182FE3EEF0E090819078892BF4
:101180008083E8EEF0E08081877F808302DEE8EEF6
:10119000F0E0808180FFFDCFE3EEF0E080818068A9
:1011A0008083112311F083E001C082E08093A901C4
:1011B0008BC09058923008F087C08091AC0190911C
:1011C000AD018C3D53E0950799F583E08A838AE26F
:1011D00089835FB7F894DE01139620E03EE041E298
:1011E000E32FF0E040935700849120FF03C08295E5
:1011F0008F703F5F8F708A3018F090E0C79602C002
:1012000090E0C0968D939D932F5F243149F75FBF87
:1012100008EE10E0F8018081877F80836AE270E049
:10122000CE01019697DBF80180818B7780834CC0DB
:10123000AE01455D5F4F6091AE010E94AC0000972A
:1012400009F442C008EE10E0F8012081277F2083D6
:10125000BC018BA59CA55BDCF80180818B7780832A
:1012600033C0903889F5E8EEF0E08081877F808395
:101270008091A5018093F10080818E77808389DD44
:1012800023C0911121C08091AC018230E8F4E8EED6
:10129000F0E08081877F80838091AC018093A501FD
:1012A00078DD8091A501882321F084E08093A90155
:1012B00009C08091E300882314F484E001C081E038
:1012C0008093A9010E944C018091E80083FF16C021
:1012D000E8EEF0E08081877F8083EBEEF0E08081B4
:1012E000806280830BC09091AC01913069F7FDCE94
:1012F0008091AC01882309F4FFCE2BCFAC960FB6BA
:10130000F894DEBF0FBECDBFDF91CF911F910F913B
:1013100008950895CF938091A9018823A1F0C091E9
:10132000E900CF708091EC0080FF02C080E801C02E
:1013300080E0C82B1092E9008091E80083FD6FDE09
:10134000CF70C093E900CF910895FB01DC0104C088
:101350008D910190801921F441505040C8F7881BAD
:10136000990B0895FB01DC0102C001900D924150E0
:101370005040D8F70895DC0101C06D9341505040B2
:08138000E0F70895F894FFCF97
:1013880000810800000119010700000000000000AA
:00000001FF
